{
  "contractName": "Charity",
  "abi": [
    {
      "inputs": [],
      "stateMutability": "nonpayable",
      "type": "constructor"
    },
    {
      "anonymous": false,
      "inputs": [
        {
          "indexed": true,
          "internalType": "address",
          "name": "donor",
          "type": "address"
        },
        {
          "indexed": false,
          "internalType": "string",
          "name": "name",
          "type": "string"
        },
        {
          "indexed": false,
          "internalType": "uint256",
          "name": "amount",
          "type": "uint256"
        }
      ],
      "name": "DonationReceived",
      "type": "event"
    },
    {
      "inputs": [
        {
          "internalType": "uint256",
          "name": "",
          "type": "uint256"
        }
      ],
      "name": "donations",
      "outputs": [
        {
          "internalType": "address",
          "name": "donor",
          "type": "address"
        },
        {
          "internalType": "string",
          "name": "name",
          "type": "string"
        },
        {
          "internalType": "uint256",
          "name": "amount",
          "type": "uint256"
        }
      ],
      "stateMutability": "view",
      "type": "function",
      "constant": true
    },
    {
      "inputs": [],
      "name": "owner",
      "outputs": [
        {
          "internalType": "address",
          "name": "",
          "type": "address"
        }
      ],
      "stateMutability": "view",
      "type": "function",
      "constant": true
    },
    {
      "inputs": [],
      "name": "totalDonations",
      "outputs": [
        {
          "internalType": "uint256",
          "name": "",
          "type": "uint256"
        }
      ],
      "stateMutability": "view",
      "type": "function",
      "constant": true
    },
    {
      "inputs": [
        {
          "internalType": "string",
          "name": "name",
          "type": "string"
        }
      ],
      "name": "donate",
      "outputs": [],
      "stateMutability": "payable",
      "type": "function",
      "payable": true
    },
    {
      "inputs": [],
      "name": "withdraw",
      "outputs": [],
      "stateMutability": "nonpayable",
      "type": "function"
    },
    {
      "inputs": [],
      "name": "getContractBalance",
      "outputs": [
        {
          "internalType": "uint256",
          "name": "",
          "type": "uint256"
        }
      ],
      "stateMutability": "view",
      "type": "function",
      "constant": true
    },
    {
      "inputs": [],
      "name": "getAllDonations",
      "outputs": [
        {
          "components": [
            {
              "internalType": "address",
              "name": "donor",
              "type": "address"
            },
            {
              "internalType": "string",
              "name": "name",
              "type": "string"
            },
            {
              "internalType": "uint256",
              "name": "amount",
              "type": "uint256"
            }
          ],
          "internalType": "struct Charity.Donation[]",
          "name": "",
          "type": "tuple[]"
        }
      ],
      "stateMutability": "view",
      "type": "function",
      "constant": true
    }
  ],
  "bytecode": "0x608060405234801561001057600080fd5b50336000806101000a81548173ffffffffffffffffffffffffffffffffffffffff021916908373ffffffffffffffffffffffffffffffffffffffff160217905550610ddf806100606000396000f3fe6080604052600436106100705760003560e01c80638da5cb5b1161004e5780638da5cb5b146100e2578063b5aebc801461010d578063de2ed89314610129578063f8626af81461015457610070565b806338a59a07146100755780633ccfd60b146100a05780636f9fb98a146100b7575b600080fd5b34801561008157600080fd5b5061008a610193565b6040516100979190610a7a565b60405180910390f35b3480156100ac57600080fd5b506100b56102e4565b005b3480156100c357600080fd5b506100cc6103db565b6040516100d99190610b0c565b60405180910390f35b3480156100ee57600080fd5b506100f76103e3565b6040516101049190610a21565b60405180910390f35b6101276004803603810190610122919061078a565b610407565b005b34801561013557600080fd5b5061013e610582565b60405161014b9190610b0c565b60405180910390f35b34801561016057600080fd5b5061017b600480360381019061017691906107cb565b610588565b60405161018a93929190610a3c565b60405180910390f35b60606002805480602002602001604051908101604052809291908181526020016000905b828210156102db57838290600052602060002090600302016040518060600160405290816000820160009054906101000a900473ffffffffffffffffffffffffffffffffffffffff1673ffffffffffffffffffffffffffffffffffffffff1673ffffffffffffffffffffffffffffffffffffffff16815260200160018201805461024090610cc2565b80601f016020809104026020016040519081016040528092919081815260200182805461026c90610cc2565b80156102b95780601f1061028e576101008083540402835291602001916102b9565b820191906000526020600020905b81548152906001019060200180831161029c57829003601f168201915b50505050508152602001600282015481525050815260200190600101906101b7565b50505050905090565b60008054906101000a900473ffffffffffffffffffffffffffffffffffffffff1673ffffffffffffffffffffffffffffffffffffffff163373ffffffffffffffffffffffffffffffffffffffff1614610372576040517f08c379a000000000000000000000000000000000000000000000000000000000815260040161036990610aec565b60405180910390fd5b60008054906101000a900473ffffffffffffffffffffffffffffffffffffffff1673ffffffffffffffffffffffffffffffffffffffff166108fc479081150290604051600060405180830381858888f193505050501580156103d8573d6000803e3d6000fd5b50565b600047905090565b60008054906101000a900473ffffffffffffffffffffffffffffffffffffffff1681565b6000341161044a576040517f08c379a000000000000000000000000000000000000000000000000000000000815260040161044190610acc565b60405180910390fd5b346001600082825461045c9190610bee565b92505081905550600260405180606001604052803373ffffffffffffffffffffffffffffffffffffffff16815260200183815260200134815250908060018154018082558091505060019003906000526020600020906003020160009091909190915060008201518160000160006101000a81548173ffffffffffffffffffffffffffffffffffffffff021916908373ffffffffffffffffffffffffffffffffffffffff160217905550602082015181600101908051906020019061052292919061066a565b506040820151816002015550503373ffffffffffffffffffffffffffffffffffffffff167f91a631485fcb697827429988737671b22367c3f76633aed1ed4193b7a52590ab8234604051610577929190610a9c565b60405180910390a250565b60015481565b6002818154811061059857600080fd5b90600052602060002090600302016000915090508060000160009054906101000a900473ffffffffffffffffffffffffffffffffffffffff16908060010180546105e190610cc2565b80601f016020809104026020016040519081016040528092919081815260200182805461060d90610cc2565b801561065a5780601f1061062f5761010080835404028352916020019161065a565b820191906000526020600020905b81548152906001019060200180831161063d57829003601f168201915b5050505050908060020154905083565b82805461067690610cc2565b90600052602060002090601f01602090048101928261069857600085556106df565b82601f106106b157805160ff19168380011785556106df565b828001600101855582156106df579182015b828111156106de5782518255916020019190600101906106c3565b5b5090506106ec91906106f0565b5090565b5b808211156107095760008160009055506001016106f1565b5090565b600061072061071b84610b58565b610b27565b90508281526020810184848401111561073857600080fd5b610743848285610c80565b509392505050565b600082601f83011261075c57600080fd5b813561076c84826020860161070d565b91505092915050565b60008135905061078481610d92565b92915050565b60006020828403121561079c57600080fd5b600082013567ffffffffffffffff8111156107b657600080fd5b6107c28482850161074b565b91505092915050565b6000602082840312156107dd57600080fd5b60006107eb84828501610775565b91505092915050565b600061080083836109b3565b905092915050565b61081181610c44565b82525050565b61082081610c44565b82525050565b600061083182610b98565b61083b8185610bbb565b93508360208202850161084d85610b88565b8060005b85811015610889578484038952815161086a85826107f4565b945061087583610bae565b925060208a01995050600181019050610851565b50829750879550505050505092915050565b60006108a682610ba3565b6108b08185610bcc565b93506108c0818560208601610c8f565b6108c981610d81565b840191505092915050565b60006108df82610ba3565b6108e98185610bdd565b93506108f9818560208601610c8f565b61090281610d81565b840191505092915050565b600061091a602283610bdd565b91507f446f6e6174696f6e206d7573742062652067726561746572207468616e207a6560008301527f726f0000000000000000000000000000000000000000000000000000000000006020830152604082019050919050565b6000610980601b83610bdd565b91507f4f6e6c7920746865206f776e65722063616e20776974686472617700000000006000830152602082019050919050565b60006060830160008301516109cb6000860182610808565b50602083015184820360208601526109e3828261089b565b91505060408301516109f86040860182610a03565b508091505092915050565b610a0c81610c76565b82525050565b610a1b81610c76565b82525050565b6000602082019050610a366000830184610817565b92915050565b6000606082019050610a516000830186610817565b8181036020830152610a6381856108d4565b9050610a726040830184610a12565b949350505050565b60006020820190508181036000830152610a948184610826565b905092915050565b60006040820190508181036000830152610ab681856108d4565b9050610ac56020830184610a12565b9392505050565b60006020820190508181036000830152610ae58161090d565b9050919050565b60006020820190508181036000830152610b0581610973565b9050919050565b6000602082019050610b216000830184610a12565b92915050565b6000604051905081810181811067ffffffffffffffff82111715610b4e57610b4d610d52565b5b8060405250919050565b600067ffffffffffffffff821115610b7357610b72610d52565b5b601f19601f8301169050602081019050919050565b6000819050602082019050919050565b600081519050919050565b600081519050919050565b6000602082019050919050565b600082825260208201905092915050565b600082825260208201905092915050565b600082825260208201905092915050565b6000610bf982610c76565b9150610c0483610c76565b9250827fffffffffffffffffffffffffffffffffffffffffffffffffffffffffffffffff03821115610c3957610c38610cf4565b5b828201905092915050565b6000610c4f82610c56565b9050919050565b600073ffffffffffffffffffffffffffffffffffffffff82169050919050565b6000819050919050565b82818337600083830152505050565b60005b83811015610cad578082015181840152602081019050610c92565b83811115610cbc576000848401525b50505050565b60006002820490506001821680610cda57607f821691505b60208210811415610cee57610ced610d23565b5b50919050565b7f4e487b7100000000000000000000000000000000000000000000000000000000600052601160045260246000fd5b7f4e487b7100000000000000000000000000000000000000000000000000000000600052602260045260246000fd5b7f4e487b7100000000000000000000000000000000000000000000000000000000600052604160045260246000fd5b6000601f19601f8301169050919050565b610d9b81610c76565b8114610da657600080fd5b5056fea26469706673582212202157b71959d516028e0b64f727461ceddee3b837b374da4be88929ff23853ad964736f6c63430008000033",
  "immutableReferences": {},
  "source": "// SPDX-License-Identifier: MIT\r\npragma solidity ^0.8.0;\r\n\r\ncontract Charity {\r\n    address public owner;\r\n    uint public totalDonations;\r\n\r\n    // Struct to store donor information\r\n    struct Donation {\r\n        address donor;\r\n        string name;\r\n        uint amount;\r\n    }\r\n\r\n    // Array to hold all donations\r\n    Donation[] public donations;\r\n\r\n    event DonationReceived(address indexed donor, string name, uint amount);\r\n\r\n    constructor() {\r\n        owner = msg.sender;\r\n    }\r\n\r\n    function donate(string memory name) external payable {\r\n        require(msg.value > 0, \"Donation must be greater than zero\");\r\n        totalDonations += msg.value;\r\n\r\n        // Store the donation details\r\n        donations.push(\r\n            Donation({donor: msg.sender, name: name, amount: msg.value})\r\n        );\r\n\r\n        emit DonationReceived(msg.sender, name, msg.value);\r\n    }\r\n\r\n    function withdraw() external {\r\n        require(msg.sender == owner, \"Only the owner can withdraw\");\r\n        payable(owner).transfer(address(this).balance);\r\n    }\r\n\r\n    function getContractBalance() external view returns (uint) {\r\n        return address(this).balance;\r\n    }\r\n\r\n    function getAllDonations() external view returns (Donation[] memory) {\r\n        return donations;\r\n    }\r\n}\r\n",
  "sourcePath": "D:\\LP3\\charity\\contracts\\Charity.sol",
  "compiler": {
    "name": "solc",
    "version": "0.8.0+commit.c7dfd78e.Emscripten.clang"
  },
  "schemaVersion": "3.4.16",
  "updatedAt": "2024-10-19T00:15:26.990Z",
  "networkType": "ethereum",
  "devdoc": {
    "kind": "dev",
    "methods": {},
    "version": 1
  },
  "userdoc": {
    "kind": "user",
    "methods": {},
    "version": 1
  }
}